{
  "_format": "hh-sol-artifact-1",
  "contractName": "VDOChain",
  "sourceName": "contracts/VDOChain.sol",
  "abi": [
    {
      "inputs": [
        {
          "internalType": "uint256",
          "name": "_id",
          "type": "uint256"
        },
        {
          "internalType": "string",
          "name": "_comment",
          "type": "string"
        }
      ],
      "name": "commentVideo",
      "outputs": [],
      "stateMutability": "nonpayable",
      "type": "function"
    },
    {
      "inputs": [
        {
          "internalType": "uint256",
          "name": "_id",
          "type": "uint256"
        }
      ],
      "name": "getVideoComments",
      "outputs": [
        {
          "components": [
            {
              "internalType": "address",
              "name": "commenter",
              "type": "address"
            },
            {
              "internalType": "string",
              "name": "comment",
              "type": "string"
            }
          ],
          "internalType": "struct VDOChain.Comment[]",
          "name": "",
          "type": "tuple[]"
        }
      ],
      "stateMutability": "view",
      "type": "function"
    },
    {
      "inputs": [
        {
          "internalType": "uint256",
          "name": "_id",
          "type": "uint256"
        }
      ],
      "name": "isVideoLikedByAddress",
      "outputs": [
        {
          "internalType": "bool",
          "name": "",
          "type": "bool"
        }
      ],
      "stateMutability": "view",
      "type": "function"
    },
    {
      "inputs": [
        {
          "internalType": "uint256",
          "name": "_id",
          "type": "uint256"
        }
      ],
      "name": "likeVideo",
      "outputs": [],
      "stateMutability": "nonpayable",
      "type": "function"
    },
    {
      "inputs": [
        {
          "internalType": "uint256",
          "name": "_id",
          "type": "uint256"
        }
      ],
      "name": "tipVideo",
      "outputs": [],
      "stateMutability": "nonpayable",
      "type": "function"
    },
    {
      "inputs": [
        {
          "internalType": "string",
          "name": "_videoHash",
          "type": "string"
        },
        {
          "internalType": "string",
          "name": "_thumbnailHash",
          "type": "string"
        },
        {
          "internalType": "string",
          "name": "_detailsHash",
          "type": "string"
        }
      ],
      "name": "uploadVideo",
      "outputs": [],
      "stateMutability": "nonpayable",
      "type": "function"
    },
    {
      "inputs": [],
      "name": "videoCount",
      "outputs": [
        {
          "internalType": "uint256",
          "name": "",
          "type": "uint256"
        }
      ],
      "stateMutability": "view",
      "type": "function"
    },
    {
      "inputs": [
        {
          "internalType": "uint256",
          "name": "",
          "type": "uint256"
        }
      ],
      "name": "videos",
      "outputs": [
        {
          "internalType": "uint256",
          "name": "id",
          "type": "uint256"
        },
        {
          "internalType": "address",
          "name": "uploader",
          "type": "address"
        },
        {
          "internalType": "string",
          "name": "videoHash",
          "type": "string"
        },
        {
          "internalType": "string",
          "name": "thumbnailHash",
          "type": "string"
        },
        {
          "internalType": "string",
          "name": "detailsHash",
          "type": "string"
        },
        {
          "internalType": "uint256",
          "name": "likesCount",
          "type": "uint256"
        },
        {
          "internalType": "uint256",
          "name": "tipsCount",
          "type": "uint256"
        },
        {
          "internalType": "uint256",
          "name": "commentsCount",
          "type": "uint256"
        },
        {
          "internalType": "bool",
          "name": "isUploaded",
          "type": "bool"
        }
      ],
      "stateMutability": "view",
      "type": "function"
    }
  ],
  "bytecode": "0x60806040526000805534801561001457600080fd5b506113c9806100246000396000f3fe608060405234801561001057600080fd5b50600436106100885760003560e01c80634e0930151161005b5780634e09301514610111578063c61b5f4c1461012d578063daf6160c1461014b578063e6821bf51461017b57610088565b806327260d5c1461008d57806329b9090a146100a957806342dbe27f146100d95780634875e9fd146100f5575b600080fd5b6100a760048036038101906100a29190610d07565b6101b3565b005b6100c360048036038101906100be9190610d07565b610355565b6040516100d09190610fda565b60405180910390f35b6100f360048036038101906100ee9190610d07565b6103bc565b005b61010f600480360381019061010a9190610c70565b6104fc565b005b61012b60048036038101906101269190610d30565b610674565b005b6101356107dd565b6040516101429190611055565b60405180910390f35b61016560048036038101906101609190610d07565b6107e3565b6040516101729190610fb8565b60405180910390f35b61019560048036038101906101909190610d07565b61093d565b6040516101aa99989796959493929190611070565b60405180910390f35b80600115156001600083815260200190815260200160002060080160009054906101000a900460ff1615151461021e576040517f08c379a000000000000000000000000000000000000000000000000000000000815260040161021590611035565b60405180910390fd5b6002600083815260200190815260200160002060003373ffffffffffffffffffffffffffffffffffffffff1673ffffffffffffffffffffffffffffffffffffffff16815260200190815260200160002060009054906101000a900460ff16156102bc576040517f08c379a00000000000000000000000000000000000000000000000000000000081526004016102b390611015565b60405180910390fd5b60016002600084815260200190815260200160002060003373ffffffffffffffffffffffffffffffffffffffff1673ffffffffffffffffffffffffffffffffffffffff16815260200190815260200160002060006101000a81548160ff02191690831515021790555060016000838152602001908152602001600020600501600081548092919061034c90611295565b91905055505050565b60006002600083815260200190815260200160002060003373ffffffffffffffffffffffffffffffffffffffff1673ffffffffffffffffffffffffffffffffffffffff16815260200190815260200160002060009054906101000a900460ff169050919050565b80600115156001600083815260200190815260200160002060080160009054906101000a900460ff16151514610427576040517f08c379a000000000000000000000000000000000000000000000000000000000815260040161041e90611035565b60405180910390fd5b6001600083815260200190815260200160002060010160009054906101000a900473ffffffffffffffffffffffffffffffffffffffff1673ffffffffffffffffffffffffffffffffffffffff163373ffffffffffffffffffffffffffffffffffffffff1614156104cc576040517f08c379a00000000000000000000000000000000000000000000000000000000081526004016104c390610ff5565b60405180910390fd5b6001600083815260200190815260200160002060060160008154809291906104f390611295565b91905055505050565b60008081548092919061050e90611295565b919050555060405180610120016040528060005481526020013373ffffffffffffffffffffffffffffffffffffffff1681526020018481526020018381526020018281526020016000815260200160008152602001600081526020016001151581525060016000805481526020019081526020016000206000820151816000015560208201518160010160006101000a81548173ffffffffffffffffffffffffffffffffffffffff021916908373ffffffffffffffffffffffffffffffffffffffff16021790555060408201518160020190805190602001906105f2929190610b50565b50606082015181600301908051906020019061060f929190610b50565b50608082015181600401908051906020019061062c929190610b50565b5060a0820151816005015560c0820151816006015560e082015181600701556101008201518160080160006101000a81548160ff021916908315150217905550905050505050565b81600115156001600083815260200190815260200160002060080160009054906101000a900460ff161515146106df576040517f08c379a00000000000000000000000000000000000000000000000000000000081526004016106d690611035565b60405180910390fd5b6003600084815260200190815260200160002060405180604001604052803373ffffffffffffffffffffffffffffffffffffffff16815260200184815250908060018154018082558091505060019003906000526020600020906002020160009091909190915060008201518160000160006101000a81548173ffffffffffffffffffffffffffffffffffffffff021916908373ffffffffffffffffffffffffffffffffffffffff16021790555060208201518160010190805190602001906107a9929190610b50565b5050506001600084815260200190815260200160002060070160008154809291906107d390611295565b9190505550505050565b60005481565b606060036000838152602001908152602001600020805480602002602001604051908101604052809291908181526020016000905b8282101561093257838290600052602060002090600202016040518060400160405290816000820160009054906101000a900473ffffffffffffffffffffffffffffffffffffffff1673ffffffffffffffffffffffffffffffffffffffff1673ffffffffffffffffffffffffffffffffffffffff1681526020016001820180546108a190611263565b80601f01602080910402602001604051908101604052809291908181526020018280546108cd90611263565b801561091a5780601f106108ef5761010080835404028352916020019161091a565b820191906000526020600020905b8154815290600101906020018083116108fd57829003601f168201915b50505050508152505081526020019060010190610818565b505050509050919050565b60016020528060005260406000206000915090508060000154908060010160009054906101000a900473ffffffffffffffffffffffffffffffffffffffff169080600201805461098c90611263565b80601f01602080910402602001604051908101604052809291908181526020018280546109b890611263565b8015610a055780601f106109da57610100808354040283529160200191610a05565b820191906000526020600020905b8154815290600101906020018083116109e857829003601f168201915b505050505090806003018054610a1a90611263565b80601f0160208091040260200160405190810160405280929190818152602001828054610a4690611263565b8015610a935780601f10610a6857610100808354040283529160200191610a93565b820191906000526020600020905b815481529060010190602001808311610a7657829003601f168201915b505050505090806004018054610aa890611263565b80601f0160208091040260200160405190810160405280929190818152602001828054610ad490611263565b8015610b215780601f10610af657610100808354040283529160200191610b21565b820191906000526020600020905b815481529060010190602001808311610b0457829003601f168201915b5050505050908060050154908060060154908060070154908060080160009054906101000a900460ff16905089565b828054610b5c90611263565b90600052602060002090601f016020900481019282610b7e5760008555610bc5565b82601f10610b9757805160ff1916838001178555610bc5565b82800160010185558215610bc5579182015b82811115610bc4578251825591602001919060010190610ba9565b5b509050610bd29190610bd6565b5090565b5b80821115610bef576000816000905550600101610bd7565b5090565b6000610c06610c0184611143565b611112565b905082815260208101848484011115610c1e57600080fd5b610c29848285611221565b509392505050565b600082601f830112610c4257600080fd5b8135610c52848260208601610bf3565b91505092915050565b600081359050610c6a8161137c565b92915050565b600080600060608486031215610c8557600080fd5b600084013567ffffffffffffffff811115610c9f57600080fd5b610cab86828701610c31565b935050602084013567ffffffffffffffff811115610cc857600080fd5b610cd486828701610c31565b925050604084013567ffffffffffffffff811115610cf157600080fd5b610cfd86828701610c31565b9150509250925092565b600060208284031215610d1957600080fd5b6000610d2784828501610c5b565b91505092915050565b60008060408385031215610d4357600080fd5b6000610d5185828601610c5b565b925050602083013567ffffffffffffffff811115610d6e57600080fd5b610d7a85828601610c31565b9150509250929050565b6000610d908383610f6c565b905092915050565b610da1816111d9565b82525050565b610db0816111d9565b82525050565b6000610dc182611183565b610dcb81856111a6565b935083602082028501610ddd85611173565b8060005b85811015610e195784840389528151610dfa8582610d84565b9450610e0583611199565b925060208a01995050600181019050610de1565b50829750879550505050505092915050565b610e34816111eb565b82525050565b6000610e458261118e565b610e4f81856111b7565b9350610e5f818560208601611230565b610e688161136b565b840191505092915050565b6000610e7e8261118e565b610e8881856111c8565b9350610e98818560208601611230565b610ea18161136b565b840191505092915050565b6000610eb96012836111c8565b91507f43616e27742074697020796f757273656c6600000000000000000000000000006000830152602082019050919050565b6000610ef96013836111c8565b91507f566964656f20616c7265616479206c696b6564000000000000000000000000006000830152602082019050919050565b6000610f39600f836111c8565b91507f566964656f206e6f7420666f756e6400000000000000000000000000000000006000830152602082019050919050565b6000604083016000830151610f846000860182610d98565b5060208301518482036020860152610f9c8282610e3a565b9150508091505092915050565b610fb281611217565b82525050565b60006020820190508181036000830152610fd28184610db6565b905092915050565b6000602082019050610fef6000830184610e2b565b92915050565b6000602082019050818103600083015261100e81610eac565b9050919050565b6000602082019050818103600083015261102e81610eec565b9050919050565b6000602082019050818103600083015261104e81610f2c565b9050919050565b600060208201905061106a6000830184610fa9565b92915050565b600061012082019050611086600083018c610fa9565b611093602083018b610da7565b81810360408301526110a5818a610e73565b905081810360608301526110b98189610e73565b905081810360808301526110cd8188610e73565b90506110dc60a0830187610fa9565b6110e960c0830186610fa9565b6110f660e0830185610fa9565b611104610100830184610e2b565b9a9950505050505050505050565b6000604051905081810181811067ffffffffffffffff821117156111395761113861133c565b5b8060405250919050565b600067ffffffffffffffff82111561115e5761115d61133c565b5b601f19601f8301169050602081019050919050565b6000819050602082019050919050565b600081519050919050565b600081519050919050565b6000602082019050919050565b600082825260208201905092915050565b600082825260208201905092915050565b600082825260208201905092915050565b60006111e4826111f7565b9050919050565b60008115159050919050565b600073ffffffffffffffffffffffffffffffffffffffff82169050919050565b6000819050919050565b82818337600083830152505050565b60005b8381101561124e578082015181840152602081019050611233565b8381111561125d576000848401525b50505050565b6000600282049050600182168061127b57607f821691505b6020821081141561128f5761128e61130d565b5b50919050565b60006112a082611217565b91507fffffffffffffffffffffffffffffffffffffffffffffffffffffffffffffffff8214156112d3576112d26112de565b5b600182019050919050565b7f4e487b7100000000000000000000000000000000000000000000000000000000600052601160045260246000fd5b7f4e487b7100000000000000000000000000000000000000000000000000000000600052602260045260246000fd5b7f4e487b7100000000000000000000000000000000000000000000000000000000600052604160045260246000fd5b6000601f19601f8301169050919050565b61138581611217565b811461139057600080fd5b5056fea2646970667358221220ac814e2a011621f08077539e6419ef761ad0e1c512c8a4b0dcbc065750da490264736f6c63430008000033",
  "linkReferences": {},
  "deployedLinkReferences": {}
}